{
  "_format": "hh-sol-artifact-1",
  "contractName": "BetWorldCup",
  "sourceName": "contracts/BetWorldCup.sol",
  "abi": [
    {
      "inputs": [
        {
          "internalType": "string",
          "name": "redPlayer_",
          "type": "string"
        },
        {
          "internalType": "string",
          "name": "bluePlayer_",
          "type": "string"
        },
        {
          "internalType": "contract IERC20Metadata",
          "name": "bettingToken_",
          "type": "address"
        },
        {
          "internalType": "uint256",
          "name": "bettingEndTime_",
          "type": "uint256"
        }
      ],
      "stateMutability": "nonpayable",
      "type": "constructor"
    },
    {
      "anonymous": false,
      "inputs": [
        {
          "indexed": false,
          "internalType": "string",
          "name": "player",
          "type": "string"
        },
        {
          "indexed": false,
          "internalType": "address",
          "name": "user",
          "type": "address"
        },
        {
          "indexed": false,
          "internalType": "uint256",
          "name": "amount",
          "type": "uint256"
        }
      ],
      "name": "Bet",
      "type": "event"
    },
    {
      "anonymous": false,
      "inputs": [
        {
          "indexed": false,
          "internalType": "address",
          "name": "user",
          "type": "address"
        },
        {
          "indexed": false,
          "internalType": "uint256",
          "name": "amount",
          "type": "uint256"
        },
        {
          "indexed": false,
          "internalType": "uint256",
          "name": "reward",
          "type": "uint256"
        }
      ],
      "name": "Claim",
      "type": "event"
    },
    {
      "anonymous": false,
      "inputs": [],
      "name": "Initial",
      "type": "event"
    },
    {
      "anonymous": false,
      "inputs": [
        {
          "indexed": true,
          "internalType": "address",
          "name": "previousOwner",
          "type": "address"
        },
        {
          "indexed": true,
          "internalType": "address",
          "name": "newOwner",
          "type": "address"
        }
      ],
      "name": "OwnershipTransferred",
      "type": "event"
    },
    {
      "anonymous": false,
      "inputs": [
        {
          "components": [
            {
              "internalType": "string",
              "name": "name",
              "type": "string"
            },
            {
              "internalType": "uint256",
              "name": "bettingOdds",
              "type": "uint256"
            },
            {
              "internalType": "contract WCShareToken",
              "name": "shareToken",
              "type": "address"
            }
          ],
          "indexed": false,
          "internalType": "struct BetWorldCup.TeamPlayer",
          "name": "player",
          "type": "tuple"
        }
      ],
      "name": "SubmitMatchResult",
      "type": "event"
    },
    {
      "inputs": [
        {
          "internalType": "uint256",
          "name": "betAmount_",
          "type": "uint256"
        }
      ],
      "name": "betBlue",
      "outputs": [],
      "stateMutability": "nonpayable",
      "type": "function"
    },
    {
      "inputs": [
        {
          "internalType": "uint256",
          "name": "betAmount_",
          "type": "uint256"
        }
      ],
      "name": "betRed",
      "outputs": [],
      "stateMutability": "nonpayable",
      "type": "function"
    },
    {
      "inputs": [],
      "name": "bettingEndTime",
      "outputs": [
        {
          "internalType": "uint256",
          "name": "",
          "type": "uint256"
        }
      ],
      "stateMutability": "view",
      "type": "function"
    },
    {
      "inputs": [],
      "name": "bettingToken",
      "outputs": [
        {
          "internalType": "contract IERC20Metadata",
          "name": "",
          "type": "address"
        }
      ],
      "stateMutability": "view",
      "type": "function"
    },
    {
      "inputs": [],
      "name": "blueBetting",
      "outputs": [
        {
          "internalType": "uint256",
          "name": "",
          "type": "uint256"
        }
      ],
      "stateMutability": "view",
      "type": "function"
    },
    {
      "inputs": [],
      "name": "blueOdds",
      "outputs": [
        {
          "internalType": "uint256",
          "name": "",
          "type": "uint256"
        }
      ],
      "stateMutability": "view",
      "type": "function"
    },
    {
      "inputs": [],
      "name": "bluePlayer",
      "outputs": [
        {
          "internalType": "string",
          "name": "name",
          "type": "string"
        },
        {
          "internalType": "uint256",
          "name": "bettingOdds",
          "type": "uint256"
        },
        {
          "internalType": "contract WCShareToken",
          "name": "shareToken",
          "type": "address"
        }
      ],
      "stateMutability": "view",
      "type": "function"
    },
    {
      "inputs": [
        {
          "internalType": "uint256",
          "name": "amount_",
          "type": "uint256"
        }
      ],
      "name": "claimReward",
      "outputs": [
        {
          "internalType": "uint256",
          "name": "",
          "type": "uint256"
        }
      ],
      "stateMutability": "nonpayable",
      "type": "function"
    },
    {
      "inputs": [],
      "name": "estimateMatchEndTime",
      "outputs": [
        {
          "internalType": "uint256",
          "name": "",
          "type": "uint256"
        }
      ],
      "stateMutability": "view",
      "type": "function"
    },
    {
      "inputs": [],
      "name": "initialize",
      "outputs": [],
      "stateMutability": "nonpayable",
      "type": "function"
    },
    {
      "inputs": [],
      "name": "initializeBet",
      "outputs": [
        {
          "internalType": "uint256",
          "name": "",
          "type": "uint256"
        }
      ],
      "stateMutability": "view",
      "type": "function"
    },
    {
      "inputs": [],
      "name": "initialized",
      "outputs": [
        {
          "internalType": "bool",
          "name": "",
          "type": "bool"
        }
      ],
      "stateMutability": "view",
      "type": "function"
    },
    {
      "inputs": [],
      "name": "owner",
      "outputs": [
        {
          "internalType": "address",
          "name": "",
          "type": "address"
        }
      ],
      "stateMutability": "view",
      "type": "function"
    },
    {
      "inputs": [],
      "name": "redBetting",
      "outputs": [
        {
          "internalType": "uint256",
          "name": "",
          "type": "uint256"
        }
      ],
      "stateMutability": "view",
      "type": "function"
    },
    {
      "inputs": [],
      "name": "redOdds",
      "outputs": [
        {
          "internalType": "uint256",
          "name": "",
          "type": "uint256"
        }
      ],
      "stateMutability": "view",
      "type": "function"
    },
    {
      "inputs": [],
      "name": "redPlayer",
      "outputs": [
        {
          "internalType": "string",
          "name": "name",
          "type": "string"
        },
        {
          "internalType": "uint256",
          "name": "bettingOdds",
          "type": "uint256"
        },
        {
          "internalType": "contract WCShareToken",
          "name": "shareToken",
          "type": "address"
        }
      ],
      "stateMutability": "view",
      "type": "function"
    },
    {
      "inputs": [],
      "name": "renounceOwnership",
      "outputs": [],
      "stateMutability": "nonpayable",
      "type": "function"
    },
    {
      "inputs": [],
      "name": "resultSubmitted",
      "outputs": [
        {
          "internalType": "bool",
          "name": "",
          "type": "bool"
        }
      ],
      "stateMutability": "view",
      "type": "function"
    },
    {
      "inputs": [
        {
          "internalType": "bool",
          "name": "isRedWinner_",
          "type": "bool"
        }
      ],
      "name": "submitMatchResult",
      "outputs": [],
      "stateMutability": "nonpayable",
      "type": "function"
    },
    {
      "inputs": [
        {
          "internalType": "address",
          "name": "newOwner",
          "type": "address"
        }
      ],
      "name": "transferOwnership",
      "outputs": [],
      "stateMutability": "nonpayable",
      "type": "function"
    },
    {
      "inputs": [],
      "name": "winner",
      "outputs": [
        {
          "internalType": "string",
          "name": "name",
          "type": "string"
        },
        {
          "internalType": "uint256",
          "name": "bettingOdds",
          "type": "uint256"
        },
        {
          "internalType": "contract WCShareToken",
          "name": "shareToken",
          "type": "address"
        }
      ],
      "stateMutability": "view",
      "type": "function"
    }
  ],
  "bytecode": "0x60c06040523480156200001157600080fd5b50604051620037cb380380620037cb8339810160408190526200003491620004da565b6200003f3362000309565b600180546001600160a01b0319166001600160a01b03841617905560808190526200006d81612a306200056d565b60a052604080516060810182528581526000602080830191909152600154835163313ce56760e01b8152845193948501936001600160a01b039092169263313ce567926004808401938290030181865afa158015620000d0573d6000803e3d6000fd5b505050506040513d601f19601f82011682018060405250810190620000f6919062000594565b604051620001049062000359565b6060808252600990820152685245445f534841524560b81b608082015260a060208201819052600390820152621494d560ea1b60c082015260ff909116604082015260e001604051809103906000f08015801562000166573d6000803e3d6000fd5b506001600160a01b03169052805180516002916200018a9183916020019062000367565b50602082810151600183810191909155604093840151600290930180546001600160a01b0319166001600160a01b0394851617905583516060810185528781526000818401529054845163313ce56760e01b815285519295860194919091169263313ce567926004808401938290030181865afa15801562000210573d6000803e3d6000fd5b505050506040513d601f19601f8201168201806040525081019062000236919062000594565b604051620002449062000359565b6060808252600a9082015269424c55455f534841524560b01b608082015260a060208201819052600390820152621094d560ea1b60c082015260ff909116604082015260e001604051809103906000f080158015620002a7573d6000803e3d6000fd5b506001600160a01b0316905280518051600591620002cb9183916020019062000367565b5060208201516001820155604090910151600290910180546001600160a01b0319166001600160a01b0390921691909117905550620005fd92505050565b600080546001600160a01b038381166001600160a01b0319831681178455604051919092169283917f8be0079c531659141344cd1fd0a4f28419497f9722a3daafe3b4186f6b6457e09190a35050565b611f9f806200182c83390190565b8280546200037590620005c0565b90600052602060002090601f016020900481019282620003995760008555620003e4565b82601f10620003b457805160ff1916838001178555620003e4565b82800160010185558215620003e4579182015b82811115620003e4578251825591602001919060010190620003c7565b50620003f2929150620003f6565b5090565b5b80821115620003f25760008155600101620003f7565b634e487b7160e01b600052604160045260246000fd5b600082601f8301126200043557600080fd5b81516001600160401b03808211156200045257620004526200040d565b604051601f8301601f19908116603f011681019082821181831017156200047d576200047d6200040d565b816040528381526020925086838588010111156200049a57600080fd5b600091505b83821015620004be57858201830151818301840152908201906200049f565b83821115620004d05760008385830101525b9695505050505050565b60008060008060808587031215620004f157600080fd5b84516001600160401b03808211156200050957600080fd5b620005178883890162000423565b955060208701519150808211156200052e57600080fd5b506200053d8782880162000423565b604087015190945090506001600160a01b03811681146200055d57600080fd5b6060959095015193969295505050565b600082198211156200058f57634e487b7160e01b600052601160045260246000fd5b500190565b600060208284031215620005a757600080fd5b815160ff81168114620005b957600080fd5b9392505050565b600181811c90821680620005d557607f821691505b60208210811415620005f757634e487b7160e01b600052602260045260246000fd5b50919050565b60805160a0516111fb620006316000396000818161028101526105080152600081816102060152610b9201526111fb6000f3fe608060405234801561001057600080fd5b50600436106101375760003560e01c8063715018a6116100b8578063ae169a501161007c578063ae169a5014610261578063c87761c614610274578063d94a95721461027c578063dfbf53ae146102a3578063e841b1bd146102ab578063f2fde38b146102be57600080fd5b8063715018a6146102305780638129fc1c146102385780638da5cb5b146102405780639fb8810214610251578063a31bac541461025957600080fd5b806353289a34116100ff57806353289a34146101d257806353e74710146101da578063602b5c34146101ed57806367075032146102015780636774fca91461022857600080fd5b806306b37c921461013c578063158ef93e146101575780631860cd0f1461017b578063201fe1521461019257806343425e88146101a7575b600080fd5b610144600181565b6040519081526020015b60405180910390f35b60005461016b90600160a01b900460ff1681565b604051901515815260200161014e565b6101836102d1565b60405161014e93929190610f2e565b6101a56101a0366004610f9b565b610379565b005b6001546101ba906001600160a01b031681565b6040516001600160a01b03909116815260200161014e565b61014461041b565b6101a56101e8366004610fc2565b61048f565b60005461016b90600160a81b900460ff1681565b6101447f000000000000000000000000000000000000000000000000000000000000000081565b610183610702565b6101a5610711565b6101a5610725565b6000546001600160a01b03166101ba565b6101446107c7565b6101446107e1565b61014461026f366004610f9b565b6107fb565b610144610a2b565b6101447f000000000000000000000000000000000000000000000000000000000000000081565b610183610a75565b6101a56102b9366004610f9b565b610a84565b6101a56102cc366004610fe6565b610b15565b6005805481906102e09061100f565b80601f016020809104026020016040519081016040528092919081815260200182805461030c9061100f565b80156103595780601f1061032e57610100808354040283529160200191610359565b820191906000526020600020905b81548152906001019060200180831161033c57829003601f168201915b5050505060018301546002909301549192916001600160a01b0316905083565b600054600160a01b900460ff166103ab5760405162461bcd60e51b81526004016103a29061104a565b60405180910390fd5b6007546103c1906001600160a01b031682610b8e565b5060408051606080825260049082015263424c554560e01b60808201523360208201529081018290527fc884468c0ea4e545c6c8e4283e74ad3925a2ae1b7e77cfbb28bb82c42634f5469060a0015b60405180910390a150565b60048054604080516318160ddd60e01b815290516000936001600160a01b03909316926318160ddd928082019260209290918290030181865afa158015610466573d6000803e3d6000fd5b505050506040513d601f19601f8201168201806040525081019061048a9190611073565b905090565b610497610cda565b600054600160a01b900460ff166104c05760405162461bcd60e51b81526004016103a29061104a565b600054600160a81b900460ff16156105065760405162461bcd60e51b815260206004820152600960248201526814dd589b5a5d1d195960ba1b60448201526064016103a2565b7f0000000000000000000000000000000000000000000000000000000000000000421161056e5760405162461bcd60e51b815260206004820152601660248201527513585d18da081b585e481b9bdd081bdd995c881e595d60521b60448201526064016103a2565b801561061b5760028054600890819083906105889061100f565b610593929190610e8e565b5060018281015490820155600291820154910180546001600160a01b0319166001600160a01b0392831617905560075460408051638456cb5960e01b815290519190921691638456cb5991600480830192600092919082900301818387803b1580156105fe57600080fd5b505af1158015610612573d6000803e3d6000fd5b505050506106be565b600580546008908190839061062f9061100f565b61063a929190610e8e565b5060018281015490820155600291820154910180546001600160a01b0319166001600160a01b039283161790556004805460408051638456cb5960e01b815290519190931692638456cb59928181019260009290919082900301818387803b1580156106a557600080fd5b505af11580156106b9573d6000803e3d6000fd5b505050505b6000805460ff60a81b1916600160a81b1790556040517f0274698bb82145344bdecfac699a3b3b374bac59fc78fd07184ff638114f16d0906104109060089061108c565b6002805481906102e09061100f565b610719610cda565b6107236000610d34565b565b61072d610cda565b600054600160a01b900460ff16156107755760405162461bcd60e51b815260206004820152600b60248201526a1a5b9a5d1a585b1a5e995960aa1b60448201526064016103a2565b6000805460ff60a01b1916600160a01b1790556107926001610a84565b61079c6001610379565b6040517fe45c773921466b5cb60070231551bd15af7900084cbe3fb3472e44d640842fc290600090a1565b60045460009061048a906001600160a01b03166001610d84565b60075460009061048a906001600160a01b03166001610d84565b60008054600160a01b900460ff166108255760405162461bcd60e51b81526004016103a29061104a565b600054600160a81b900460ff1661087e5760405162461bcd60e51b815260206004820152601b60248201527f4e6f74207375626d6974206d6174636820726573756c7420796574000000000060448201526064016103a2565b600a54604051631096102960e11b8152336004820152602481018490526001600160a01b0390911690819063212c205290604401600060405180830381600087803b1580156108cc57600080fd5b505af11580156108e0573d6000803e3d6000fd5b5050600a5460009250670de0b6b3a76400009150610907906001600160a01b031686610d84565b6109119190611159565b60015460405163a9059cbb60e01b8152336004820152602481018390529192506001600160a01b03169063a9059cbb906044016020604051808303816000875af1158015610963573d6000803e3d6000fd5b505050506040513d601f19601f82011682018060405250810190610987919061117b565b50604051630852cd8d60e31b8152600481018590526001600160a01b038316906342966c6890602401600060405180830381600087803b1580156109ca57600080fd5b505af11580156109de573d6000803e3d6000fd5b505060408051338152602081018890529081018490527f34fcbac0073d7c3d388e51312faf357774904998eeb8fca628b9e6f65ee1cbf79250606001905060405180910390a19392505050565b600754604080516318160ddd60e01b815290516000926001600160a01b0316916318160ddd9160048083019260209291908290030181865afa158015610466573d6000803e3d6000fd5b6008805481906102e09061100f565b600054600160a01b900460ff16610aad5760405162461bcd60e51b81526004016103a29061104a565b600454610ac3906001600160a01b031682610b8e565b506040805160608082526003908201526214915160ea1b60808201523360208201529081018290527fc884468c0ea4e545c6c8e4283e74ad3925a2ae1b7e77cfbb28bb82c42634f5469060a001610410565b610b1d610cda565b6001600160a01b038116610b825760405162461bcd60e51b815260206004820152602660248201527f4f776e61626c653a206e6577206f776e657220697320746865207a65726f206160448201526564647265737360d01b60648201526084016103a2565b610b8b81610d34565b50565b60007f00000000000000000000000000000000000000000000000000000000000000004210610bf75760405162461bcd60e51b815260206004820152601560248201527445786365656465642062657474696e672074696d6560581b60448201526064016103a2565b6001546040516323b872dd60e01b8152336004820152306024820152604481018490526001600160a01b03909116906323b872dd906064016020604051808303816000875af1158015610c4e573d6000803e3d6000fd5b505050506040513d601f19601f82011682018060405250810190610c72919061117b565b506040516340c10f1960e01b8152336004820152602481018390526001600160a01b038416906340c10f1990604401600060405180830381600087803b158015610cbb57600080fd5b505af1158015610ccf573d6000803e3d6000fd5b509395945050505050565b6000546001600160a01b031633146107235760405162461bcd60e51b815260206004820181905260248201527f4f776e61626c653a2063616c6c6572206973206e6f7420746865206f776e657260448201526064016103a2565b600080546001600160a01b038381166001600160a01b0319831681178455604051919092169283917f8be0079c531659141344cd1fd0a4f28419497f9722a3daafe3b4186f6b6457e09190a35050565b6001546040516370a0823160e01b815230600482015260009182916001600160a01b03909116906370a0823190602401602060405180830381865afa158015610dd1573d6000803e3d6000fd5b505050506040513d601f19601f82011682018060405250810190610df59190611073565b90506000846001600160a01b03166318160ddd6040518163ffffffff1660e01b8152600401602060405180830381865afa158015610e37573d6000803e3d6000fd5b505050506040513d601f19601f82011682018060405250810190610e5b9190611073565b90508084610e71670de0b6b3a764000085611198565b610e7b9190611198565b610e859190611159565b95945050505050565b828054610e9a9061100f565b90600052602060002090601f016020900481019282610ebc5760008555610f09565b82601f10610ecd5780548555610f09565b82800160010185558215610f0957600052602060002091601f016020900482015b82811115610f09578254825591600101919060010190610eee565b50610f15929150610f19565b5090565b5b80821115610f155760008155600101610f1a565b606081526000845180606084015260005b81811015610f5c5760208188018101516080868401015201610f3f565b81811115610f6e576000608083860101525b506020830194909452506001600160a01b039190911660408201526080601f909201601f19160101919050565b600060208284031215610fad57600080fd5b5035919050565b8015158114610b8b57600080fd5b600060208284031215610fd457600080fd5b8135610fdf81610fb4565b9392505050565b600060208284031215610ff857600080fd5b81356001600160a01b0381168114610fdf57600080fd5b600181811c9082168061102357607f821691505b6020821081141561104457634e487b7160e01b600052602260045260246000fd5b50919050565b6020808252600f908201526e139bdd081a5b9a5d1a585b1a5e9959608a1b604082015260600190565b60006020828403121561108557600080fd5b5051919050565b600060208083526060818401526000845481600182811c9150808316806110b457607f831692505b8583108114156110d257634e487b7160e01b85526022600452602485fd5b6080880183905260a088018180156110f157600181146111025761112d565b60ff1986168252878201965061112d565b60008b81526020902060005b868110156111275781548482015290850190890161110e565b83019750505b505050870154604087015250506002909401546001600160a01b03166060909301929092525090919050565b60008261117657634e487b7160e01b600052601260045260246000fd5b500490565b60006020828403121561118d57600080fd5b8151610fdf81610fb4565b60008160001904831182151516156111c057634e487b7160e01b600052601160045260246000fd5b50029056fea2646970667358221220bf447372f882b85d2a792c4ae6b3a7ec532e795127fe8c8e7621e5e6aaa1433964736f6c634300080a003360a06040523480156200001157600080fd5b5060405162001f9f38038062001f9f833981016040819052620000349162000401565b828281816200004333620000f1565b8151620000589060069060208501906200028e565b5080516200006e9060079060208401906200028e565b50506008805460ff19169055506200008860003362000141565b620000b47f9f2df0fed2c77648de5860a4cc508cd0818c85b8b8a1ab4ceeef8d981c8956a63362000141565b620000e07f65d7a28e3265b37a6474929f336521b332c1681b933f6cb9f3376673440d862a3362000141565b505060ff1660805250620004c39050565b600080546001600160a01b038381166001600160a01b0319831681178455604051919092169283917f8be0079c531659141344cd1fd0a4f28419497f9722a3daafe3b4186f6b6457e09190a35050565b6200014d828262000151565b5050565b6200016882826200019460201b62000ac41760201c565b60008281526002602090815260409091206200018f91839062000b2f6200021c821b17901c565b505050565b60008281526001602090815260408083206001600160a01b038516845290915290205460ff166200014d5760008281526001602081815260408084206001600160a01b0386168086529252808420805460ff19169093179092559051339285917f2f8788117e7eff1d82e926ec794901d17c78024a50270940304540a733656f0d9190a45050565b600062000233836001600160a01b0384166200023c565b90505b92915050565b6000818152600183016020526040812054620002855750815460018181018455600084815260208082209093018490558454848252828601909352604090209190915562000236565b50600062000236565b8280546200029c9062000486565b90600052602060002090601f016020900481019282620002c057600085556200030b565b82601f10620002db57805160ff19168380011785556200030b565b828001600101855582156200030b579182015b828111156200030b578251825591602001919060010190620002ee565b50620003199291506200031d565b5090565b5b808211156200031957600081556001016200031e565b634e487b7160e01b600052604160045260246000fd5b600082601f8301126200035c57600080fd5b81516001600160401b038082111562000379576200037962000334565b604051601f8301601f19908116603f01168101908282118183101715620003a457620003a462000334565b81604052838152602092508683858801011115620003c157600080fd5b600091505b83821015620003e55785820183015181830184015290820190620003c6565b83821115620003f75760008385830101525b9695505050505050565b6000806000606084860312156200041757600080fd5b83516001600160401b03808211156200042f57600080fd5b6200043d878388016200034a565b945060208601519150808211156200045457600080fd5b5062000463868287016200034a565b925050604084015160ff811681146200047b57600080fd5b809150509250925092565b600181811c908216806200049b57607f821691505b60208210811415620004bd57634e487b7160e01b600052602260045260246000fd5b50919050565b608051611ac0620004df60003960006102bd0152611ac06000f3fe608060405234801561001057600080fd5b50600436106101f05760003560e01c8063715018a61161010f578063a457c2d7116100a2578063d547741f11610071578063d547741f1461044d578063dd62ed3e14610460578063e63ab1e914610473578063f2fde38b1461049a57600080fd5b8063a457c2d7146103ed578063a9059cbb14610400578063ca15c87314610413578063d53913931461042657600080fd5b80639010d07c116100de5780639010d07c146103b757806391d14854146103ca57806395d89b41146103dd578063a217fddf146103e557600080fd5b8063715018a61461036f57806379cc6790146103775780638456cb591461038a5780638da5cb5b1461039257600080fd5b8063313ce5671161018757806340c10f191161015657806340c10f191461031557806342966c68146103285780635c975abb1461033b57806370a082311461034657600080fd5b8063313ce567146102b657806336568abe146102e757806339509351146102fa5780633f4ba83a1461030d57600080fd5b8063212c2052116101c3578063212c20521461025757806323b872dd1461026c578063248a9ca31461027f5780632f2ff15d146102a357600080fd5b806301ffc9a7146101f557806306fdde031461021d578063095ea7b31461023257806318160ddd14610245575b600080fd5b610208610203366004611766565b6104ad565b60405190151581526020015b60405180910390f35b6102256104d8565b60405161021491906117bc565b61020861024036600461180b565b61056a565b6005545b604051908152602001610214565b61026a61026536600461180b565b610582565b005b61020861027a366004611835565b6105fd565b61024961028d366004611871565b6000908152600160208190526040909120015490565b61026a6102b136600461188a565b610621565b60405160ff7f0000000000000000000000000000000000000000000000000000000000000000168152602001610214565b61026a6102f536600461188a565b610647565b61020861030836600461180b565b6106c5565b61026a6106e7565b61026a61032336600461180b565b61078d565b61026a610336366004611871565b61082c565b60085460ff16610208565b6102496103543660046118b6565b6001600160a01b031660009081526003602052604090205490565b61026a610839565b61026a61038536600461180b565b61084b565b61026a610860565b6000546001600160a01b03165b6040516001600160a01b039091168152602001610214565b61039f6103c53660046118d1565b610904565b6102086103d836600461188a565b610923565b61022561094e565b610249600081565b6102086103fb36600461180b565b61095d565b61020861040e36600461180b565b6109d8565b610249610421366004611871565b6109e6565b6102497f9f2df0fed2c77648de5860a4cc508cd0818c85b8b8a1ab4ceeef8d981c8956a681565b61026a61045b36600461188a565b6109fd565b61024961046e3660046118f3565b610a23565b6102497f65d7a28e3265b37a6474929f336521b332c1681b933f6cb9f3376673440d862a81565b61026a6104a83660046118b6565b610a4e565b60006001600160e01b03198216635a05180f60e01b14806104d257506104d282610b44565b92915050565b6060600680546104e79061191d565b80601f01602080910402602001604051908101604052809291908181526020018280546105139061191d565b80156105605780601f1061053557610100808354040283529160200191610560565b820191906000526020600020905b81548152906001019060200180831161054357829003601f168201915b5050505050905090565b600033610578818585610b79565b5060019392505050565b61058d600033610923565b6105ed5760405162461bcd60e51b815260206004820152602660248201527f4d75737420686176652061646d696e20726f6c6520746f207472616e73666572604482015265103a37b5b2b760d11b60648201526084015b60405180910390fd5b6105f88233836105fd565b505050565b60003361060b858285610c9d565b610616858585610d17565b506001949350505050565b6000828152600160208190526040909120015461063d81610ecd565b6105f88383610ed7565b6001600160a01b03811633146106b75760405162461bcd60e51b815260206004820152602f60248201527f416363657373436f6e74726f6c3a2063616e206f6e6c792072656e6f756e636560448201526e103937b632b9903337b91039b2b63360891b60648201526084016105e4565b6106c18282610ef9565b5050565b6000336105788185856106d88383610a23565b6106e2919061196e565b610b79565b6107117f65d7a28e3265b37a6474929f336521b332c1681b933f6cb9f3376673440d862a33610923565b6107835760405162461bcd60e51b815260206004820152603960248201527f45524332305072657365744d696e7465725061757365723a206d75737420686160448201527f76652070617573657220726f6c6520746f20756e70617573650000000000000060648201526084016105e4565b61078b610f1b565b565b6107b77f9f2df0fed2c77648de5860a4cc508cd0818c85b8b8a1ab4ceeef8d981c8956a633610923565b6108225760405162461bcd60e51b815260206004820152603660248201527f45524332305072657365744d696e7465725061757365723a206d7573742068616044820152751d99481b5a5b9d195c881c9bdb19481d1bc81b5a5b9d60521b60648201526084016105e4565b6106c18282610f6d565b610836338261103a565b50565b61084161117a565b61078b60006111d4565b610856823383610c9d565b6106c1828261103a565b61088a7f65d7a28e3265b37a6474929f336521b332c1681b933f6cb9f3376673440d862a33610923565b6108fc5760405162461bcd60e51b815260206004820152603760248201527f45524332305072657365744d696e7465725061757365723a206d75737420686160448201527f76652070617573657220726f6c6520746f20706175736500000000000000000060648201526084016105e4565b61078b611224565b600082815260026020526040812061091c9083611261565b9392505050565b60009182526001602090815260408084206001600160a01b0393909316845291905290205460ff1690565b6060600780546104e79061191d565b6000338161096b8286610a23565b9050838110156109cb5760405162461bcd60e51b815260206004820152602560248201527f45524332303a2064656372656173656420616c6c6f77616e63652062656c6f77604482015264207a65726f60d81b60648201526084016105e4565b6106168286868403610b79565b600033610578818585610d17565b60008181526002602052604081206104d29061126d565b60008281526001602081905260409091200154610a1981610ecd565b6105f88383610ef9565b6001600160a01b03918216600090815260046020908152604080832093909416825291909152205490565b610a5661117a565b6001600160a01b038116610abb5760405162461bcd60e51b815260206004820152602660248201527f4f776e61626c653a206e6577206f776e657220697320746865207a65726f206160448201526564647265737360d01b60648201526084016105e4565b610836816111d4565b610ace8282610923565b6106c15760008281526001602081815260408084206001600160a01b0386168086529252808420805460ff19169093179092559051339285917f2f8788117e7eff1d82e926ec794901d17c78024a50270940304540a733656f0d9190a45050565b600061091c836001600160a01b038416611277565b60006001600160e01b03198216637965db0b60e01b14806104d257506301ffc9a760e01b6001600160e01b03198316146104d2565b6001600160a01b038316610bdb5760405162461bcd60e51b8152602060048201526024808201527f45524332303a20617070726f76652066726f6d20746865207a65726f206164646044820152637265737360e01b60648201526084016105e4565b6001600160a01b038216610c3c5760405162461bcd60e51b815260206004820152602260248201527f45524332303a20617070726f766520746f20746865207a65726f206164647265604482015261737360f01b60648201526084016105e4565b6001600160a01b0383811660008181526004602090815260408083209487168084529482529182902085905590518481527f8c5be1e5ebec7d5bd14f71427d1e84f3dd0314c0f7b2291e5b200ac8c7c3b925910160405180910390a3505050565b6000610ca98484610a23565b90506000198114610d115781811015610d045760405162461bcd60e51b815260206004820152601d60248201527f45524332303a20696e73756666696369656e7420616c6c6f77616e636500000060448201526064016105e4565b610d118484848403610b79565b50505050565b6001600160a01b038316610d7b5760405162461bcd60e51b815260206004820152602560248201527f45524332303a207472616e736665722066726f6d20746865207a65726f206164604482015264647265737360d81b60648201526084016105e4565b6001600160a01b038216610ddd5760405162461bcd60e51b815260206004820152602360248201527f45524332303a207472616e7366657220746f20746865207a65726f206164647260448201526265737360e81b60648201526084016105e4565b610de88383836112c6565b6001600160a01b03831660009081526003602052604090205481811015610e605760405162461bcd60e51b815260206004820152602660248201527f45524332303a207472616e7366657220616d6f756e7420657863656564732062604482015265616c616e636560d01b60648201526084016105e4565b6001600160a01b0380851660008181526003602052604080822086860390559286168082529083902080548601905591517fddf252ad1be2c89b69c2b068fc378daa952ba7f163c4a11628f55a4df523b3ef90610ec09086815260200190565b60405180910390a3610d11565b61083681336112d1565b610ee18282610ac4565b60008281526002602052604090206105f89082610b2f565b610f03828261132a565b60008281526002602052604090206105f89082611391565b610f236113a6565b6008805460ff191690557f5db9ee0a495bf2e6ff9c91a7834c1ba4fdd244a5e8aa4e537bd38aeae4b073aa335b6040516001600160a01b03909116815260200160405180910390a1565b6001600160a01b038216610fc35760405162461bcd60e51b815260206004820152601f60248201527f45524332303a206d696e7420746f20746865207a65726f20616464726573730060448201526064016105e4565b610fcf600083836112c6565b8060056000828254610fe1919061196e565b90915550506001600160a01b0382166000818152600360209081526040808320805486019055518481527fddf252ad1be2c89b69c2b068fc378daa952ba7f163c4a11628f55a4df523b3ef910160405180910390a35050565b6001600160a01b03821661109a5760405162461bcd60e51b815260206004820152602160248201527f45524332303a206275726e2066726f6d20746865207a65726f206164647265736044820152607360f81b60648201526084016105e4565b6110a6826000836112c6565b6001600160a01b0382166000908152600360205260409020548181101561111a5760405162461bcd60e51b815260206004820152602260248201527f45524332303a206275726e20616d6f756e7420657863656564732062616c616e604482015261636560f01b60648201526084016105e4565b6001600160a01b03831660008181526003602090815260408083208686039055600580548790039055518581529192917fddf252ad1be2c89b69c2b068fc378daa952ba7f163c4a11628f55a4df523b3ef910160405180910390a3505050565b6000546001600160a01b0316331461078b5760405162461bcd60e51b815260206004820181905260248201527f4f776e61626c653a2063616c6c6572206973206e6f7420746865206f776e657260448201526064016105e4565b600080546001600160a01b038381166001600160a01b0319831681178455604051919092169283917f8be0079c531659141344cd1fd0a4f28419497f9722a3daafe3b4186f6b6457e09190a35050565b61122c6113ef565b6008805460ff191660011790557f62e78cea01bee320cd4e420270b5ea74000d11b0c9f74754ebdbfc544b05a258610f503390565b600061091c8383611435565b60006104d2825490565b60008181526001830160205260408120546112be575081546001818101845560008481526020808220909301849055845484825282860190935260409020919091556104d2565b5060006104d2565b6105f883838361145f565b6112db8282610923565b6106c1576112e8816114c5565b6112f38360206114d7565b604051602001611304929190611986565b60408051601f198184030181529082905262461bcd60e51b82526105e4916004016117bc565b6113348282610923565b156106c15760008281526001602090815260408083206001600160a01b0385168085529252808320805460ff1916905551339285917ff6391f5c32d9c69d2a47ea670b442974b53935d1edc7fd64eb21e047a839171b9190a45050565b600061091c836001600160a01b038416611673565b60085460ff1661078b5760405162461bcd60e51b815260206004820152601460248201527314185d5cd8589b194e881b9bdd081c185d5cd95960621b60448201526064016105e4565b60085460ff161561078b5760405162461bcd60e51b815260206004820152601060248201526f14185d5cd8589b194e881c185d5cd95960821b60448201526064016105e4565b600082600001828154811061144c5761144c6119fb565b9060005260206000200154905092915050565b60085460ff16156105f85760405162461bcd60e51b815260206004820152602a60248201527f45524332305061757361626c653a20746f6b656e207472616e736665722077686044820152691a5b19481c185d5cd95960b21b60648201526084016105e4565b60606104d26001600160a01b03831660145b606060006114e6836002611a11565b6114f190600261196e565b67ffffffffffffffff81111561150957611509611a30565b6040519080825280601f01601f191660200182016040528015611533576020820181803683370190505b509050600360fc1b8160008151811061154e5761154e6119fb565b60200101906001600160f81b031916908160001a905350600f60fb1b8160018151811061157d5761157d6119fb565b60200101906001600160f81b031916908160001a90535060006115a1846002611a11565b6115ac90600161196e565b90505b6001811115611624576f181899199a1a9b1b9c1cb0b131b232b360811b85600f16601081106115e0576115e06119fb565b1a60f81b8282815181106115f6576115f66119fb565b60200101906001600160f81b031916908160001a90535060049490941c9361161d81611a46565b90506115af565b50831561091c5760405162461bcd60e51b815260206004820181905260248201527f537472696e67733a20686578206c656e67746820696e73756666696369656e7460448201526064016105e4565b6000818152600183016020526040812054801561175c576000611697600183611a5d565b85549091506000906116ab90600190611a5d565b90508181146117105760008660000182815481106116cb576116cb6119fb565b90600052602060002001549050808760000184815481106116ee576116ee6119fb565b6000918252602080832090910192909255918252600188019052604090208390555b855486908061172157611721611a74565b6001900381819060005260206000200160009055905585600101600086815260200190815260200160002060009055600193505050506104d2565b60009150506104d2565b60006020828403121561177857600080fd5b81356001600160e01b03198116811461091c57600080fd5b60005b838110156117ab578181015183820152602001611793565b83811115610d115750506000910152565b60208152600082518060208401526117db816040850160208701611790565b601f01601f19169190910160400192915050565b80356001600160a01b038116811461180657600080fd5b919050565b6000806040838503121561181e57600080fd5b611827836117ef565b946020939093013593505050565b60008060006060848603121561184a57600080fd5b611853846117ef565b9250611861602085016117ef565b9150604084013590509250925092565b60006020828403121561188357600080fd5b5035919050565b6000806040838503121561189d57600080fd5b823591506118ad602084016117ef565b90509250929050565b6000602082840312156118c857600080fd5b61091c826117ef565b600080604083850312156118e457600080fd5b50508035926020909101359150565b6000806040838503121561190657600080fd5b61190f836117ef565b91506118ad602084016117ef565b600181811c9082168061193157607f821691505b6020821081141561195257634e487b7160e01b600052602260045260246000fd5b50919050565b634e487b7160e01b600052601160045260246000fd5b6000821982111561198157611981611958565b500190565b7f416363657373436f6e74726f6c3a206163636f756e74200000000000000000008152600083516119be816017850160208801611790565b7001034b99036b4b9b9b4b733903937b6329607d1b60179184019182015283516119ef816028840160208801611790565b01602801949350505050565b634e487b7160e01b600052603260045260246000fd5b6000816000190483118215151615611a2b57611a2b611958565b500290565b634e487b7160e01b600052604160045260246000fd5b600081611a5557611a55611958565b506000190190565b600082821015611a6f57611a6f611958565b500390565b634e487b7160e01b600052603160045260246000fdfea264697066735822122029ff4b90b1598790a4b6e27acb2536ea731c595066c70686523e6716ba45409564736f6c634300080a0033",
  "linkReferences": {},
  "deployedLinkReferences": {}
}