{
  "_format": "hh-sol-artifact-1",
  "contractName": "WCShareToken",
  "sourceName": "contracts/BetWorldCup.sol",
  "abi": [
    {
      "inputs": [
        {
          "internalType": "string",
          "name": "name_",
          "type": "string"
        },
        {
          "internalType": "string",
          "name": "symbol_",
          "type": "string"
        },
        {
          "internalType": "uint8",
          "name": "decimals_",
          "type": "uint8"
        }
      ],
      "stateMutability": "nonpayable",
      "type": "constructor"
    },
    {
      "anonymous": false,
      "inputs": [
        {
          "indexed": true,
          "internalType": "address",
          "name": "owner",
          "type": "address"
        },
        {
          "indexed": true,
          "internalType": "address",
          "name": "spender",
          "type": "address"
        },
        {
          "indexed": false,
          "internalType": "uint256",
          "name": "value",
          "type": "uint256"
        }
      ],
      "name": "Approval",
      "type": "event"
    },
    {
      "anonymous": false,
      "inputs": [
        {
          "indexed": true,
          "internalType": "address",
          "name": "previousOwner",
          "type": "address"
        },
        {
          "indexed": true,
          "internalType": "address",
          "name": "newOwner",
          "type": "address"
        }
      ],
      "name": "OwnershipTransferred",
      "type": "event"
    },
    {
      "anonymous": false,
      "inputs": [
        {
          "indexed": false,
          "internalType": "address",
          "name": "account",
          "type": "address"
        }
      ],
      "name": "Paused",
      "type": "event"
    },
    {
      "anonymous": false,
      "inputs": [
        {
          "indexed": true,
          "internalType": "bytes32",
          "name": "role",
          "type": "bytes32"
        },
        {
          "indexed": true,
          "internalType": "bytes32",
          "name": "previousAdminRole",
          "type": "bytes32"
        },
        {
          "indexed": true,
          "internalType": "bytes32",
          "name": "newAdminRole",
          "type": "bytes32"
        }
      ],
      "name": "RoleAdminChanged",
      "type": "event"
    },
    {
      "anonymous": false,
      "inputs": [
        {
          "indexed": true,
          "internalType": "bytes32",
          "name": "role",
          "type": "bytes32"
        },
        {
          "indexed": true,
          "internalType": "address",
          "name": "account",
          "type": "address"
        },
        {
          "indexed": true,
          "internalType": "address",
          "name": "sender",
          "type": "address"
        }
      ],
      "name": "RoleGranted",
      "type": "event"
    },
    {
      "anonymous": false,
      "inputs": [
        {
          "indexed": true,
          "internalType": "bytes32",
          "name": "role",
          "type": "bytes32"
        },
        {
          "indexed": true,
          "internalType": "address",
          "name": "account",
          "type": "address"
        },
        {
          "indexed": true,
          "internalType": "address",
          "name": "sender",
          "type": "address"
        }
      ],
      "name": "RoleRevoked",
      "type": "event"
    },
    {
      "anonymous": false,
      "inputs": [
        {
          "indexed": true,
          "internalType": "address",
          "name": "from",
          "type": "address"
        },
        {
          "indexed": true,
          "internalType": "address",
          "name": "to",
          "type": "address"
        },
        {
          "indexed": false,
          "internalType": "uint256",
          "name": "value",
          "type": "uint256"
        }
      ],
      "name": "Transfer",
      "type": "event"
    },
    {
      "anonymous": false,
      "inputs": [
        {
          "indexed": false,
          "internalType": "address",
          "name": "account",
          "type": "address"
        }
      ],
      "name": "Unpaused",
      "type": "event"
    },
    {
      "inputs": [],
      "name": "DEFAULT_ADMIN_ROLE",
      "outputs": [
        {
          "internalType": "bytes32",
          "name": "",
          "type": "bytes32"
        }
      ],
      "stateMutability": "view",
      "type": "function"
    },
    {
      "inputs": [],
      "name": "MINTER_ROLE",
      "outputs": [
        {
          "internalType": "bytes32",
          "name": "",
          "type": "bytes32"
        }
      ],
      "stateMutability": "view",
      "type": "function"
    },
    {
      "inputs": [],
      "name": "PAUSER_ROLE",
      "outputs": [
        {
          "internalType": "bytes32",
          "name": "",
          "type": "bytes32"
        }
      ],
      "stateMutability": "view",
      "type": "function"
    },
    {
      "inputs": [
        {
          "internalType": "address",
          "name": "owner",
          "type": "address"
        },
        {
          "internalType": "address",
          "name": "spender",
          "type": "address"
        }
      ],
      "name": "allowance",
      "outputs": [
        {
          "internalType": "uint256",
          "name": "",
          "type": "uint256"
        }
      ],
      "stateMutability": "view",
      "type": "function"
    },
    {
      "inputs": [
        {
          "internalType": "address",
          "name": "spender",
          "type": "address"
        },
        {
          "internalType": "uint256",
          "name": "amount",
          "type": "uint256"
        }
      ],
      "name": "approve",
      "outputs": [
        {
          "internalType": "bool",
          "name": "",
          "type": "bool"
        }
      ],
      "stateMutability": "nonpayable",
      "type": "function"
    },
    {
      "inputs": [
        {
          "internalType": "address",
          "name": "account",
          "type": "address"
        }
      ],
      "name": "balanceOf",
      "outputs": [
        {
          "internalType": "uint256",
          "name": "",
          "type": "uint256"
        }
      ],
      "stateMutability": "view",
      "type": "function"
    },
    {
      "inputs": [
        {
          "internalType": "uint256",
          "name": "amount",
          "type": "uint256"
        }
      ],
      "name": "burn",
      "outputs": [],
      "stateMutability": "nonpayable",
      "type": "function"
    },
    {
      "inputs": [
        {
          "internalType": "address",
          "name": "account",
          "type": "address"
        },
        {
          "internalType": "uint256",
          "name": "amount",
          "type": "uint256"
        }
      ],
      "name": "burnFrom",
      "outputs": [],
      "stateMutability": "nonpayable",
      "type": "function"
    },
    {
      "inputs": [],
      "name": "decimals",
      "outputs": [
        {
          "internalType": "uint8",
          "name": "",
          "type": "uint8"
        }
      ],
      "stateMutability": "view",
      "type": "function"
    },
    {
      "inputs": [
        {
          "internalType": "address",
          "name": "spender",
          "type": "address"
        },
        {
          "internalType": "uint256",
          "name": "subtractedValue",
          "type": "uint256"
        }
      ],
      "name": "decreaseAllowance",
      "outputs": [
        {
          "internalType": "bool",
          "name": "",
          "type": "bool"
        }
      ],
      "stateMutability": "nonpayable",
      "type": "function"
    },
    {
      "inputs": [
        {
          "internalType": "bytes32",
          "name": "role",
          "type": "bytes32"
        }
      ],
      "name": "getRoleAdmin",
      "outputs": [
        {
          "internalType": "bytes32",
          "name": "",
          "type": "bytes32"
        }
      ],
      "stateMutability": "view",
      "type": "function"
    },
    {
      "inputs": [
        {
          "internalType": "bytes32",
          "name": "role",
          "type": "bytes32"
        },
        {
          "internalType": "uint256",
          "name": "index",
          "type": "uint256"
        }
      ],
      "name": "getRoleMember",
      "outputs": [
        {
          "internalType": "address",
          "name": "",
          "type": "address"
        }
      ],
      "stateMutability": "view",
      "type": "function"
    },
    {
      "inputs": [
        {
          "internalType": "bytes32",
          "name": "role",
          "type": "bytes32"
        }
      ],
      "name": "getRoleMemberCount",
      "outputs": [
        {
          "internalType": "uint256",
          "name": "",
          "type": "uint256"
        }
      ],
      "stateMutability": "view",
      "type": "function"
    },
    {
      "inputs": [
        {
          "internalType": "bytes32",
          "name": "role",
          "type": "bytes32"
        },
        {
          "internalType": "address",
          "name": "account",
          "type": "address"
        }
      ],
      "name": "grantRole",
      "outputs": [],
      "stateMutability": "nonpayable",
      "type": "function"
    },
    {
      "inputs": [
        {
          "internalType": "bytes32",
          "name": "role",
          "type": "bytes32"
        },
        {
          "internalType": "address",
          "name": "account",
          "type": "address"
        }
      ],
      "name": "hasRole",
      "outputs": [
        {
          "internalType": "bool",
          "name": "",
          "type": "bool"
        }
      ],
      "stateMutability": "view",
      "type": "function"
    },
    {
      "inputs": [
        {
          "internalType": "address",
          "name": "spender",
          "type": "address"
        },
        {
          "internalType": "uint256",
          "name": "addedValue",
          "type": "uint256"
        }
      ],
      "name": "increaseAllowance",
      "outputs": [
        {
          "internalType": "bool",
          "name": "",
          "type": "bool"
        }
      ],
      "stateMutability": "nonpayable",
      "type": "function"
    },
    {
      "inputs": [
        {
          "internalType": "address",
          "name": "to",
          "type": "address"
        },
        {
          "internalType": "uint256",
          "name": "amount",
          "type": "uint256"
        }
      ],
      "name": "mint",
      "outputs": [],
      "stateMutability": "nonpayable",
      "type": "function"
    },
    {
      "inputs": [],
      "name": "name",
      "outputs": [
        {
          "internalType": "string",
          "name": "",
          "type": "string"
        }
      ],
      "stateMutability": "view",
      "type": "function"
    },
    {
      "inputs": [],
      "name": "owner",
      "outputs": [
        {
          "internalType": "address",
          "name": "",
          "type": "address"
        }
      ],
      "stateMutability": "view",
      "type": "function"
    },
    {
      "inputs": [],
      "name": "pause",
      "outputs": [],
      "stateMutability": "nonpayable",
      "type": "function"
    },
    {
      "inputs": [],
      "name": "paused",
      "outputs": [
        {
          "internalType": "bool",
          "name": "",
          "type": "bool"
        }
      ],
      "stateMutability": "view",
      "type": "function"
    },
    {
      "inputs": [],
      "name": "renounceOwnership",
      "outputs": [],
      "stateMutability": "nonpayable",
      "type": "function"
    },
    {
      "inputs": [
        {
          "internalType": "bytes32",
          "name": "role",
          "type": "bytes32"
        },
        {
          "internalType": "address",
          "name": "account",
          "type": "address"
        }
      ],
      "name": "renounceRole",
      "outputs": [],
      "stateMutability": "nonpayable",
      "type": "function"
    },
    {
      "inputs": [
        {
          "internalType": "bytes32",
          "name": "role",
          "type": "bytes32"
        },
        {
          "internalType": "address",
          "name": "account",
          "type": "address"
        }
      ],
      "name": "revokeRole",
      "outputs": [],
      "stateMutability": "nonpayable",
      "type": "function"
    },
    {
      "inputs": [
        {
          "internalType": "bytes4",
          "name": "interfaceId",
          "type": "bytes4"
        }
      ],
      "name": "supportsInterface",
      "outputs": [
        {
          "internalType": "bool",
          "name": "",
          "type": "bool"
        }
      ],
      "stateMutability": "view",
      "type": "function"
    },
    {
      "inputs": [],
      "name": "symbol",
      "outputs": [
        {
          "internalType": "string",
          "name": "",
          "type": "string"
        }
      ],
      "stateMutability": "view",
      "type": "function"
    },
    {
      "inputs": [],
      "name": "totalSupply",
      "outputs": [
        {
          "internalType": "uint256",
          "name": "",
          "type": "uint256"
        }
      ],
      "stateMutability": "view",
      "type": "function"
    },
    {
      "inputs": [
        {
          "internalType": "address",
          "name": "to",
          "type": "address"
        },
        {
          "internalType": "uint256",
          "name": "amount",
          "type": "uint256"
        }
      ],
      "name": "transfer",
      "outputs": [
        {
          "internalType": "bool",
          "name": "",
          "type": "bool"
        }
      ],
      "stateMutability": "nonpayable",
      "type": "function"
    },
    {
      "inputs": [
        {
          "internalType": "address",
          "name": "from",
          "type": "address"
        },
        {
          "internalType": "address",
          "name": "to",
          "type": "address"
        },
        {
          "internalType": "uint256",
          "name": "amount",
          "type": "uint256"
        }
      ],
      "name": "transferFrom",
      "outputs": [
        {
          "internalType": "bool",
          "name": "",
          "type": "bool"
        }
      ],
      "stateMutability": "nonpayable",
      "type": "function"
    },
    {
      "inputs": [
        {
          "internalType": "address",
          "name": "newOwner",
          "type": "address"
        }
      ],
      "name": "transferOwnership",
      "outputs": [],
      "stateMutability": "nonpayable",
      "type": "function"
    },
    {
      "inputs": [],
      "name": "unpause",
      "outputs": [],
      "stateMutability": "nonpayable",
      "type": "function"
    }
  ],
  "bytecode": "0x60a06040523480156200001157600080fd5b5060405162001f1038038062001f10833981016040819052620000349162000401565b828281816200004333620000f1565b8151620000589060069060208501906200028e565b5080516200006e9060079060208401906200028e565b50506008805460ff19169055506200008860003362000141565b620000b47f9f2df0fed2c77648de5860a4cc508cd0818c85b8b8a1ab4ceeef8d981c8956a63362000141565b620000e07f65d7a28e3265b37a6474929f336521b332c1681b933f6cb9f3376673440d862a3362000141565b505060ff1660805250620004c39050565b600080546001600160a01b038381166001600160a01b0319831681178455604051919092169283917f8be0079c531659141344cd1fd0a4f28419497f9722a3daafe3b4186f6b6457e09190a35050565b6200014d828262000151565b5050565b6200016882826200019460201b62000a351760201c565b60008281526002602090815260409091206200018f91839062000aa06200021c821b17901c565b505050565b60008281526001602090815260408083206001600160a01b038516845290915290205460ff166200014d5760008281526001602081815260408084206001600160a01b0386168086529252808420805460ff19169093179092559051339285917f2f8788117e7eff1d82e926ec794901d17c78024a50270940304540a733656f0d9190a45050565b600062000233836001600160a01b0384166200023c565b90505b92915050565b6000818152600183016020526040812054620002855750815460018181018455600084815260208082209093018490558454848252828601909352604090209190915562000236565b50600062000236565b8280546200029c9062000486565b90600052602060002090601f016020900481019282620002c057600085556200030b565b82601f10620002db57805160ff19168380011785556200030b565b828001600101855582156200030b579182015b828111156200030b578251825591602001919060010190620002ee565b50620003199291506200031d565b5090565b5b808211156200031957600081556001016200031e565b634e487b7160e01b600052604160045260246000fd5b600082601f8301126200035c57600080fd5b81516001600160401b038082111562000379576200037962000334565b604051601f8301601f19908116603f01168101908282118183101715620003a457620003a462000334565b81604052838152602092508683858801011115620003c157600080fd5b600091505b83821015620003e55785820183015181830184015290820190620003c6565b83821115620003f75760008385830101525b9695505050505050565b6000806000606084860312156200041757600080fd5b83516001600160401b03808211156200042f57600080fd5b6200043d878388016200034a565b945060208601519150808211156200045457600080fd5b5062000463868287016200034a565b925050604084015160ff811681146200047b57600080fd5b809150509250925092565b600181811c908216806200049b57607f821691505b60208210811415620004bd57634e487b7160e01b600052602260045260246000fd5b50919050565b608051611a31620004df600039600061029f0152611a316000f3fe608060405234801561001057600080fd5b50600436106101e55760003560e01c8063715018a61161010f578063a457c2d7116100a2578063d547741f11610071578063d547741f1461042f578063dd62ed3e14610442578063e63ab1e914610455578063f2fde38b1461047c57600080fd5b8063a457c2d7146103cf578063a9059cbb146103e2578063ca15c873146103f5578063d53913931461040857600080fd5b80639010d07c116100de5780639010d07c1461039957806391d14854146103ac57806395d89b41146103bf578063a217fddf146103c757600080fd5b8063715018a61461035157806379cc6790146103595780638456cb591461036c5780638da5cb5b1461037457600080fd5b8063313ce5671161018757806340c10f191161015657806340c10f19146102f757806342966c681461030a5780635c975abb1461031d57806370a082311461032857600080fd5b8063313ce5671461029857806336568abe146102c957806339509351146102dc5780633f4ba83a146102ef57600080fd5b806318160ddd116101c357806318160ddd1461023a57806323b872dd1461024c578063248a9ca31461025f5780632f2ff15d1461028357600080fd5b806301ffc9a7146101ea57806306fdde0314610212578063095ea7b314610227575b600080fd5b6101fd6101f83660046116d7565b61048f565b60405190151581526020015b60405180910390f35b61021a6104ba565b604051610209919061172d565b6101fd61023536600461177c565b61054c565b6005545b604051908152602001610209565b6101fd61025a3660046117a6565b610564565b61023e61026d3660046117e2565b6000908152600160208190526040909120015490565b6102966102913660046117fb565b610588565b005b60405160ff7f0000000000000000000000000000000000000000000000000000000000000000168152602001610209565b6102966102d73660046117fb565b6105b3565b6101fd6102ea36600461177c565b610636565b610296610658565b61029661030536600461177c565b6106fe565b6102966103183660046117e2565b61079d565b60085460ff166101fd565b61023e610336366004611827565b6001600160a01b031660009081526003602052604090205490565b6102966107aa565b61029661036736600461177c565b6107bc565b6102966107d1565b6000546001600160a01b03165b6040516001600160a01b039091168152602001610209565b6103816103a7366004611842565b610875565b6101fd6103ba3660046117fb565b610894565b61021a6108bf565b61023e600081565b6101fd6103dd36600461177c565b6108ce565b6101fd6103f036600461177c565b610949565b61023e6104033660046117e2565b610957565b61023e7f9f2df0fed2c77648de5860a4cc508cd0818c85b8b8a1ab4ceeef8d981c8956a681565b61029661043d3660046117fb565b61096e565b61023e610450366004611864565b610994565b61023e7f65d7a28e3265b37a6474929f336521b332c1681b933f6cb9f3376673440d862a81565b61029661048a366004611827565b6109bf565b60006001600160e01b03198216635a05180f60e01b14806104b457506104b482610ab5565b92915050565b6060600680546104c99061188e565b80601f01602080910402602001604051908101604052809291908181526020018280546104f59061188e565b80156105425780601f1061051757610100808354040283529160200191610542565b820191906000526020600020905b81548152906001019060200180831161052557829003601f168201915b5050505050905090565b60003361055a818585610aea565b5060019392505050565b600033610572858285610c0e565b61057d858585610c88565b506001949350505050565b600082815260016020819052604090912001546105a481610e3e565b6105ae8383610e48565b505050565b6001600160a01b03811633146106285760405162461bcd60e51b815260206004820152602f60248201527f416363657373436f6e74726f6c3a2063616e206f6e6c792072656e6f756e636560448201526e103937b632b9903337b91039b2b63360891b60648201526084015b60405180910390fd5b6106328282610e6a565b5050565b60003361055a8185856106498383610994565b61065391906118df565b610aea565b6106827f65d7a28e3265b37a6474929f336521b332c1681b933f6cb9f3376673440d862a33610894565b6106f45760405162461bcd60e51b815260206004820152603960248201527f45524332305072657365744d696e7465725061757365723a206d75737420686160448201527f76652070617573657220726f6c6520746f20756e706175736500000000000000606482015260840161061f565b6106fc610e8c565b565b6107287f9f2df0fed2c77648de5860a4cc508cd0818c85b8b8a1ab4ceeef8d981c8956a633610894565b6107935760405162461bcd60e51b815260206004820152603660248201527f45524332305072657365744d696e7465725061757365723a206d7573742068616044820152751d99481b5a5b9d195c881c9bdb19481d1bc81b5a5b9d60521b606482015260840161061f565b6106328282610ede565b6107a73382610fab565b50565b6107b26110eb565b6106fc6000611145565b6107c7823383610c0e565b6106328282610fab565b6107fb7f65d7a28e3265b37a6474929f336521b332c1681b933f6cb9f3376673440d862a33610894565b61086d5760405162461bcd60e51b815260206004820152603760248201527f45524332305072657365744d696e7465725061757365723a206d75737420686160448201527f76652070617573657220726f6c6520746f207061757365000000000000000000606482015260840161061f565b6106fc611195565b600082815260026020526040812061088d90836111d2565b9392505050565b60009182526001602090815260408084206001600160a01b0393909316845291905290205460ff1690565b6060600780546104c99061188e565b600033816108dc8286610994565b90508381101561093c5760405162461bcd60e51b815260206004820152602560248201527f45524332303a2064656372656173656420616c6c6f77616e63652062656c6f77604482015264207a65726f60d81b606482015260840161061f565b61057d8286868403610aea565b60003361055a818585610c88565b60008181526002602052604081206104b4906111de565b6000828152600160208190526040909120015461098a81610e3e565b6105ae8383610e6a565b6001600160a01b03918216600090815260046020908152604080832093909416825291909152205490565b6109c76110eb565b6001600160a01b038116610a2c5760405162461bcd60e51b815260206004820152602660248201527f4f776e61626c653a206e6577206f776e657220697320746865207a65726f206160448201526564647265737360d01b606482015260840161061f565b6107a781611145565b610a3f8282610894565b6106325760008281526001602081815260408084206001600160a01b0386168086529252808420805460ff19169093179092559051339285917f2f8788117e7eff1d82e926ec794901d17c78024a50270940304540a733656f0d9190a45050565b600061088d836001600160a01b0384166111e8565b60006001600160e01b03198216637965db0b60e01b14806104b457506301ffc9a760e01b6001600160e01b03198316146104b4565b6001600160a01b038316610b4c5760405162461bcd60e51b8152602060048201526024808201527f45524332303a20617070726f76652066726f6d20746865207a65726f206164646044820152637265737360e01b606482015260840161061f565b6001600160a01b038216610bad5760405162461bcd60e51b815260206004820152602260248201527f45524332303a20617070726f766520746f20746865207a65726f206164647265604482015261737360f01b606482015260840161061f565b6001600160a01b0383811660008181526004602090815260408083209487168084529482529182902085905590518481527f8c5be1e5ebec7d5bd14f71427d1e84f3dd0314c0f7b2291e5b200ac8c7c3b925910160405180910390a3505050565b6000610c1a8484610994565b90506000198114610c825781811015610c755760405162461bcd60e51b815260206004820152601d60248201527f45524332303a20696e73756666696369656e7420616c6c6f77616e6365000000604482015260640161061f565b610c828484848403610aea565b50505050565b6001600160a01b038316610cec5760405162461bcd60e51b815260206004820152602560248201527f45524332303a207472616e736665722066726f6d20746865207a65726f206164604482015264647265737360d81b606482015260840161061f565b6001600160a01b038216610d4e5760405162461bcd60e51b815260206004820152602360248201527f45524332303a207472616e7366657220746f20746865207a65726f206164647260448201526265737360e81b606482015260840161061f565b610d59838383611237565b6001600160a01b03831660009081526003602052604090205481811015610dd15760405162461bcd60e51b815260206004820152602660248201527f45524332303a207472616e7366657220616d6f756e7420657863656564732062604482015265616c616e636560d01b606482015260840161061f565b6001600160a01b0380851660008181526003602052604080822086860390559286168082529083902080548601905591517fddf252ad1be2c89b69c2b068fc378daa952ba7f163c4a11628f55a4df523b3ef90610e319086815260200190565b60405180910390a3610c82565b6107a78133611242565b610e528282610a35565b60008281526002602052604090206105ae9082610aa0565b610e74828261129b565b60008281526002602052604090206105ae9082611302565b610e94611317565b6008805460ff191690557f5db9ee0a495bf2e6ff9c91a7834c1ba4fdd244a5e8aa4e537bd38aeae4b073aa335b6040516001600160a01b03909116815260200160405180910390a1565b6001600160a01b038216610f345760405162461bcd60e51b815260206004820152601f60248201527f45524332303a206d696e7420746f20746865207a65726f206164647265737300604482015260640161061f565b610f4060008383611237565b8060056000828254610f5291906118df565b90915550506001600160a01b0382166000818152600360209081526040808320805486019055518481527fddf252ad1be2c89b69c2b068fc378daa952ba7f163c4a11628f55a4df523b3ef910160405180910390a35050565b6001600160a01b03821661100b5760405162461bcd60e51b815260206004820152602160248201527f45524332303a206275726e2066726f6d20746865207a65726f206164647265736044820152607360f81b606482015260840161061f565b61101782600083611237565b6001600160a01b0382166000908152600360205260409020548181101561108b5760405162461bcd60e51b815260206004820152602260248201527f45524332303a206275726e20616d6f756e7420657863656564732062616c616e604482015261636560f01b606482015260840161061f565b6001600160a01b03831660008181526003602090815260408083208686039055600580548790039055518581529192917fddf252ad1be2c89b69c2b068fc378daa952ba7f163c4a11628f55a4df523b3ef910160405180910390a3505050565b6000546001600160a01b031633146106fc5760405162461bcd60e51b815260206004820181905260248201527f4f776e61626c653a2063616c6c6572206973206e6f7420746865206f776e6572604482015260640161061f565b600080546001600160a01b038381166001600160a01b0319831681178455604051919092169283917f8be0079c531659141344cd1fd0a4f28419497f9722a3daafe3b4186f6b6457e09190a35050565b61119d611360565b6008805460ff191660011790557f62e78cea01bee320cd4e420270b5ea74000d11b0c9f74754ebdbfc544b05a258610ec13390565b600061088d83836113a6565b60006104b4825490565b600081815260018301602052604081205461122f575081546001818101845560008481526020808220909301849055845484825282860190935260409020919091556104b4565b5060006104b4565b6105ae8383836113d0565b61124c8282610894565b6106325761125981611436565b611264836020611448565b6040516020016112759291906118f7565b60408051601f198184030181529082905262461bcd60e51b825261061f9160040161172d565b6112a58282610894565b156106325760008281526001602090815260408083206001600160a01b0385168085529252808320805460ff1916905551339285917ff6391f5c32d9c69d2a47ea670b442974b53935d1edc7fd64eb21e047a839171b9190a45050565b600061088d836001600160a01b0384166115e4565b60085460ff166106fc5760405162461bcd60e51b815260206004820152601460248201527314185d5cd8589b194e881b9bdd081c185d5cd95960621b604482015260640161061f565b60085460ff16156106fc5760405162461bcd60e51b815260206004820152601060248201526f14185d5cd8589b194e881c185d5cd95960821b604482015260640161061f565b60008260000182815481106113bd576113bd61196c565b9060005260206000200154905092915050565b60085460ff16156105ae5760405162461bcd60e51b815260206004820152602a60248201527f45524332305061757361626c653a20746f6b656e207472616e736665722077686044820152691a5b19481c185d5cd95960b21b606482015260840161061f565b60606104b46001600160a01b03831660145b60606000611457836002611982565b6114629060026118df565b67ffffffffffffffff81111561147a5761147a6119a1565b6040519080825280601f01601f1916602001820160405280156114a4576020820181803683370190505b509050600360fc1b816000815181106114bf576114bf61196c565b60200101906001600160f81b031916908160001a905350600f60fb1b816001815181106114ee576114ee61196c565b60200101906001600160f81b031916908160001a9053506000611512846002611982565b61151d9060016118df565b90505b6001811115611595576f181899199a1a9b1b9c1cb0b131b232b360811b85600f16601081106115515761155161196c565b1a60f81b8282815181106115675761156761196c565b60200101906001600160f81b031916908160001a90535060049490941c9361158e816119b7565b9050611520565b50831561088d5760405162461bcd60e51b815260206004820181905260248201527f537472696e67733a20686578206c656e67746820696e73756666696369656e74604482015260640161061f565b600081815260018301602052604081205480156116cd5760006116086001836119ce565b855490915060009061161c906001906119ce565b905081811461168157600086600001828154811061163c5761163c61196c565b906000526020600020015490508087600001848154811061165f5761165f61196c565b6000918252602080832090910192909255918252600188019052604090208390555b8554869080611692576116926119e5565b6001900381819060005260206000200160009055905585600101600086815260200190815260200160002060009055600193505050506104b4565b60009150506104b4565b6000602082840312156116e957600080fd5b81356001600160e01b03198116811461088d57600080fd5b60005b8381101561171c578181015183820152602001611704565b83811115610c825750506000910152565b602081526000825180602084015261174c816040850160208701611701565b601f01601f19169190910160400192915050565b80356001600160a01b038116811461177757600080fd5b919050565b6000806040838503121561178f57600080fd5b61179883611760565b946020939093013593505050565b6000806000606084860312156117bb57600080fd5b6117c484611760565b92506117d260208501611760565b9150604084013590509250925092565b6000602082840312156117f457600080fd5b5035919050565b6000806040838503121561180e57600080fd5b8235915061181e60208401611760565b90509250929050565b60006020828403121561183957600080fd5b61088d82611760565b6000806040838503121561185557600080fd5b50508035926020909101359150565b6000806040838503121561187757600080fd5b61188083611760565b915061181e60208401611760565b600181811c908216806118a257607f821691505b602082108114156118c357634e487b7160e01b600052602260045260246000fd5b50919050565b634e487b7160e01b600052601160045260246000fd5b600082198211156118f2576118f26118c9565b500190565b7f416363657373436f6e74726f6c3a206163636f756e742000000000000000000081526000835161192f816017850160208801611701565b7001034b99036b4b9b9b4b733903937b6329607d1b6017918401918201528351611960816028840160208801611701565b01602801949350505050565b634e487b7160e01b600052603260045260246000fd5b600081600019048311821515161561199c5761199c6118c9565b500290565b634e487b7160e01b600052604160045260246000fd5b6000816119c6576119c66118c9565b506000190190565b6000828210156119e0576119e06118c9565b500390565b634e487b7160e01b600052603160045260246000fdfea2646970667358221220aac50eb23f8c6ae369dfb23248f17f05f9ee058e01490aae0b0844d9a6ed9c3364736f6c634300080a0033",
  "linkReferences": {},
  "deployedLinkReferences": {}
}