{
  "_format": "hh-sol-artifact-1",
  "contractName": "WCShareToken",
  "sourceName": "contracts/WCShareToken.sol",
  "abi": [
    {
      "inputs": [
        {
          "internalType": "string",
          "name": "name_",
          "type": "string"
        },
        {
          "internalType": "string",
          "name": "symbol_",
          "type": "string"
        },
        {
          "internalType": "uint8",
          "name": "decimals_",
          "type": "uint8"
        }
      ],
      "stateMutability": "nonpayable",
      "type": "constructor"
    },
    {
      "anonymous": false,
      "inputs": [
        {
          "indexed": true,
          "internalType": "address",
          "name": "owner",
          "type": "address"
        },
        {
          "indexed": true,
          "internalType": "address",
          "name": "spender",
          "type": "address"
        },
        {
          "indexed": false,
          "internalType": "uint256",
          "name": "value",
          "type": "uint256"
        }
      ],
      "name": "Approval",
      "type": "event"
    },
    {
      "anonymous": false,
      "inputs": [
        {
          "indexed": true,
          "internalType": "address",
          "name": "previousOwner",
          "type": "address"
        },
        {
          "indexed": true,
          "internalType": "address",
          "name": "newOwner",
          "type": "address"
        }
      ],
      "name": "OwnershipTransferred",
      "type": "event"
    },
    {
      "anonymous": false,
      "inputs": [
        {
          "indexed": false,
          "internalType": "address",
          "name": "account",
          "type": "address"
        }
      ],
      "name": "Paused",
      "type": "event"
    },
    {
      "anonymous": false,
      "inputs": [
        {
          "indexed": true,
          "internalType": "bytes32",
          "name": "role",
          "type": "bytes32"
        },
        {
          "indexed": true,
          "internalType": "bytes32",
          "name": "previousAdminRole",
          "type": "bytes32"
        },
        {
          "indexed": true,
          "internalType": "bytes32",
          "name": "newAdminRole",
          "type": "bytes32"
        }
      ],
      "name": "RoleAdminChanged",
      "type": "event"
    },
    {
      "anonymous": false,
      "inputs": [
        {
          "indexed": true,
          "internalType": "bytes32",
          "name": "role",
          "type": "bytes32"
        },
        {
          "indexed": true,
          "internalType": "address",
          "name": "account",
          "type": "address"
        },
        {
          "indexed": true,
          "internalType": "address",
          "name": "sender",
          "type": "address"
        }
      ],
      "name": "RoleGranted",
      "type": "event"
    },
    {
      "anonymous": false,
      "inputs": [
        {
          "indexed": true,
          "internalType": "bytes32",
          "name": "role",
          "type": "bytes32"
        },
        {
          "indexed": true,
          "internalType": "address",
          "name": "account",
          "type": "address"
        },
        {
          "indexed": true,
          "internalType": "address",
          "name": "sender",
          "type": "address"
        }
      ],
      "name": "RoleRevoked",
      "type": "event"
    },
    {
      "anonymous": false,
      "inputs": [
        {
          "indexed": true,
          "internalType": "address",
          "name": "from",
          "type": "address"
        },
        {
          "indexed": true,
          "internalType": "address",
          "name": "to",
          "type": "address"
        },
        {
          "indexed": false,
          "internalType": "uint256",
          "name": "value",
          "type": "uint256"
        }
      ],
      "name": "Transfer",
      "type": "event"
    },
    {
      "anonymous": false,
      "inputs": [
        {
          "indexed": false,
          "internalType": "address",
          "name": "account",
          "type": "address"
        }
      ],
      "name": "Unpaused",
      "type": "event"
    },
    {
      "inputs": [],
      "name": "DEFAULT_ADMIN_ROLE",
      "outputs": [
        {
          "internalType": "bytes32",
          "name": "",
          "type": "bytes32"
        }
      ],
      "stateMutability": "view",
      "type": "function"
    },
    {
      "inputs": [],
      "name": "MINTER_ROLE",
      "outputs": [
        {
          "internalType": "bytes32",
          "name": "",
          "type": "bytes32"
        }
      ],
      "stateMutability": "view",
      "type": "function"
    },
    {
      "inputs": [],
      "name": "PAUSER_ROLE",
      "outputs": [
        {
          "internalType": "bytes32",
          "name": "",
          "type": "bytes32"
        }
      ],
      "stateMutability": "view",
      "type": "function"
    },
    {
      "inputs": [
        {
          "internalType": "address",
          "name": "owner",
          "type": "address"
        },
        {
          "internalType": "address",
          "name": "spender",
          "type": "address"
        }
      ],
      "name": "allowance",
      "outputs": [
        {
          "internalType": "uint256",
          "name": "",
          "type": "uint256"
        }
      ],
      "stateMutability": "view",
      "type": "function"
    },
    {
      "inputs": [
        {
          "internalType": "address",
          "name": "spender",
          "type": "address"
        },
        {
          "internalType": "uint256",
          "name": "amount",
          "type": "uint256"
        }
      ],
      "name": "approve",
      "outputs": [
        {
          "internalType": "bool",
          "name": "",
          "type": "bool"
        }
      ],
      "stateMutability": "nonpayable",
      "type": "function"
    },
    {
      "inputs": [
        {
          "internalType": "address",
          "name": "account",
          "type": "address"
        }
      ],
      "name": "balanceOf",
      "outputs": [
        {
          "internalType": "uint256",
          "name": "",
          "type": "uint256"
        }
      ],
      "stateMutability": "view",
      "type": "function"
    },
    {
      "inputs": [
        {
          "internalType": "uint256",
          "name": "amount",
          "type": "uint256"
        }
      ],
      "name": "burn",
      "outputs": [],
      "stateMutability": "nonpayable",
      "type": "function"
    },
    {
      "inputs": [
        {
          "internalType": "address",
          "name": "account",
          "type": "address"
        },
        {
          "internalType": "uint256",
          "name": "amount",
          "type": "uint256"
        }
      ],
      "name": "burnFrom",
      "outputs": [],
      "stateMutability": "nonpayable",
      "type": "function"
    },
    {
      "inputs": [],
      "name": "decimals",
      "outputs": [
        {
          "internalType": "uint8",
          "name": "",
          "type": "uint8"
        }
      ],
      "stateMutability": "view",
      "type": "function"
    },
    {
      "inputs": [
        {
          "internalType": "address",
          "name": "spender",
          "type": "address"
        },
        {
          "internalType": "uint256",
          "name": "subtractedValue",
          "type": "uint256"
        }
      ],
      "name": "decreaseAllowance",
      "outputs": [
        {
          "internalType": "bool",
          "name": "",
          "type": "bool"
        }
      ],
      "stateMutability": "nonpayable",
      "type": "function"
    },
    {
      "inputs": [
        {
          "internalType": "bytes32",
          "name": "role",
          "type": "bytes32"
        }
      ],
      "name": "getRoleAdmin",
      "outputs": [
        {
          "internalType": "bytes32",
          "name": "",
          "type": "bytes32"
        }
      ],
      "stateMutability": "view",
      "type": "function"
    },
    {
      "inputs": [
        {
          "internalType": "bytes32",
          "name": "role",
          "type": "bytes32"
        },
        {
          "internalType": "uint256",
          "name": "index",
          "type": "uint256"
        }
      ],
      "name": "getRoleMember",
      "outputs": [
        {
          "internalType": "address",
          "name": "",
          "type": "address"
        }
      ],
      "stateMutability": "view",
      "type": "function"
    },
    {
      "inputs": [
        {
          "internalType": "bytes32",
          "name": "role",
          "type": "bytes32"
        }
      ],
      "name": "getRoleMemberCount",
      "outputs": [
        {
          "internalType": "uint256",
          "name": "",
          "type": "uint256"
        }
      ],
      "stateMutability": "view",
      "type": "function"
    },
    {
      "inputs": [
        {
          "internalType": "bytes32",
          "name": "role",
          "type": "bytes32"
        },
        {
          "internalType": "address",
          "name": "account",
          "type": "address"
        }
      ],
      "name": "grantRole",
      "outputs": [],
      "stateMutability": "nonpayable",
      "type": "function"
    },
    {
      "inputs": [
        {
          "internalType": "bytes32",
          "name": "role",
          "type": "bytes32"
        },
        {
          "internalType": "address",
          "name": "account",
          "type": "address"
        }
      ],
      "name": "hasRole",
      "outputs": [
        {
          "internalType": "bool",
          "name": "",
          "type": "bool"
        }
      ],
      "stateMutability": "view",
      "type": "function"
    },
    {
      "inputs": [
        {
          "internalType": "address",
          "name": "spender",
          "type": "address"
        },
        {
          "internalType": "uint256",
          "name": "addedValue",
          "type": "uint256"
        }
      ],
      "name": "increaseAllowance",
      "outputs": [
        {
          "internalType": "bool",
          "name": "",
          "type": "bool"
        }
      ],
      "stateMutability": "nonpayable",
      "type": "function"
    },
    {
      "inputs": [
        {
          "internalType": "address",
          "name": "to",
          "type": "address"
        },
        {
          "internalType": "uint256",
          "name": "amount",
          "type": "uint256"
        }
      ],
      "name": "mint",
      "outputs": [],
      "stateMutability": "nonpayable",
      "type": "function"
    },
    {
      "inputs": [],
      "name": "name",
      "outputs": [
        {
          "internalType": "string",
          "name": "",
          "type": "string"
        }
      ],
      "stateMutability": "view",
      "type": "function"
    },
    {
      "inputs": [],
      "name": "owner",
      "outputs": [
        {
          "internalType": "address",
          "name": "",
          "type": "address"
        }
      ],
      "stateMutability": "view",
      "type": "function"
    },
    {
      "inputs": [],
      "name": "pause",
      "outputs": [],
      "stateMutability": "nonpayable",
      "type": "function"
    },
    {
      "inputs": [],
      "name": "paused",
      "outputs": [
        {
          "internalType": "bool",
          "name": "",
          "type": "bool"
        }
      ],
      "stateMutability": "view",
      "type": "function"
    },
    {
      "inputs": [],
      "name": "renounceOwnership",
      "outputs": [],
      "stateMutability": "nonpayable",
      "type": "function"
    },
    {
      "inputs": [
        {
          "internalType": "bytes32",
          "name": "role",
          "type": "bytes32"
        },
        {
          "internalType": "address",
          "name": "account",
          "type": "address"
        }
      ],
      "name": "renounceRole",
      "outputs": [],
      "stateMutability": "nonpayable",
      "type": "function"
    },
    {
      "inputs": [
        {
          "internalType": "bytes32",
          "name": "role",
          "type": "bytes32"
        },
        {
          "internalType": "address",
          "name": "account",
          "type": "address"
        }
      ],
      "name": "revokeRole",
      "outputs": [],
      "stateMutability": "nonpayable",
      "type": "function"
    },
    {
      "inputs": [
        {
          "internalType": "bytes4",
          "name": "interfaceId",
          "type": "bytes4"
        }
      ],
      "name": "supportsInterface",
      "outputs": [
        {
          "internalType": "bool",
          "name": "",
          "type": "bool"
        }
      ],
      "stateMutability": "view",
      "type": "function"
    },
    {
      "inputs": [],
      "name": "symbol",
      "outputs": [
        {
          "internalType": "string",
          "name": "",
          "type": "string"
        }
      ],
      "stateMutability": "view",
      "type": "function"
    },
    {
      "inputs": [],
      "name": "totalSupply",
      "outputs": [
        {
          "internalType": "uint256",
          "name": "",
          "type": "uint256"
        }
      ],
      "stateMutability": "view",
      "type": "function"
    },
    {
      "inputs": [
        {
          "internalType": "address",
          "name": "to",
          "type": "address"
        },
        {
          "internalType": "uint256",
          "name": "amount",
          "type": "uint256"
        }
      ],
      "name": "transfer",
      "outputs": [
        {
          "internalType": "bool",
          "name": "",
          "type": "bool"
        }
      ],
      "stateMutability": "nonpayable",
      "type": "function"
    },
    {
      "inputs": [
        {
          "internalType": "address",
          "name": "from",
          "type": "address"
        },
        {
          "internalType": "address",
          "name": "to",
          "type": "address"
        },
        {
          "internalType": "uint256",
          "name": "amount",
          "type": "uint256"
        }
      ],
      "name": "transferFrom",
      "outputs": [
        {
          "internalType": "bool",
          "name": "",
          "type": "bool"
        }
      ],
      "stateMutability": "nonpayable",
      "type": "function"
    },
    {
      "inputs": [
        {
          "internalType": "address",
          "name": "from_",
          "type": "address"
        },
        {
          "internalType": "uint256",
          "name": "amount_",
          "type": "uint256"
        }
      ],
      "name": "transferFromByAdmin",
      "outputs": [],
      "stateMutability": "nonpayable",
      "type": "function"
    },
    {
      "inputs": [
        {
          "internalType": "address",
          "name": "newOwner",
          "type": "address"
        }
      ],
      "name": "transferOwnership",
      "outputs": [],
      "stateMutability": "nonpayable",
      "type": "function"
    },
    {
      "inputs": [],
      "name": "unpause",
      "outputs": [],
      "stateMutability": "nonpayable",
      "type": "function"
    }
  ],
  "bytecode": "0x60a06040523480156200001157600080fd5b5060405162001f9f38038062001f9f833981016040819052620000349162000401565b828281816200004333620000f1565b8151620000589060069060208501906200028e565b5080516200006e9060079060208401906200028e565b50506008805460ff19169055506200008860003362000141565b620000b47f9f2df0fed2c77648de5860a4cc508cd0818c85b8b8a1ab4ceeef8d981c8956a63362000141565b620000e07f65d7a28e3265b37a6474929f336521b332c1681b933f6cb9f3376673440d862a3362000141565b505060ff1660805250620004c39050565b600080546001600160a01b038381166001600160a01b0319831681178455604051919092169283917f8be0079c531659141344cd1fd0a4f28419497f9722a3daafe3b4186f6b6457e09190a35050565b6200014d828262000151565b5050565b6200016882826200019460201b62000ac41760201c565b60008281526002602090815260409091206200018f91839062000b2f6200021c821b17901c565b505050565b60008281526001602090815260408083206001600160a01b038516845290915290205460ff166200014d5760008281526001602081815260408084206001600160a01b0386168086529252808420805460ff19169093179092559051339285917f2f8788117e7eff1d82e926ec794901d17c78024a50270940304540a733656f0d9190a45050565b600062000233836001600160a01b0384166200023c565b90505b92915050565b6000818152600183016020526040812054620002855750815460018181018455600084815260208082209093018490558454848252828601909352604090209190915562000236565b50600062000236565b8280546200029c9062000486565b90600052602060002090601f016020900481019282620002c057600085556200030b565b82601f10620002db57805160ff19168380011785556200030b565b828001600101855582156200030b579182015b828111156200030b578251825591602001919060010190620002ee565b50620003199291506200031d565b5090565b5b808211156200031957600081556001016200031e565b634e487b7160e01b600052604160045260246000fd5b600082601f8301126200035c57600080fd5b81516001600160401b038082111562000379576200037962000334565b604051601f8301601f19908116603f01168101908282118183101715620003a457620003a462000334565b81604052838152602092508683858801011115620003c157600080fd5b600091505b83821015620003e55785820183015181830184015290820190620003c6565b83821115620003f75760008385830101525b9695505050505050565b6000806000606084860312156200041757600080fd5b83516001600160401b03808211156200042f57600080fd5b6200043d878388016200034a565b945060208601519150808211156200045457600080fd5b5062000463868287016200034a565b925050604084015160ff811681146200047b57600080fd5b809150509250925092565b600181811c908216806200049b57607f821691505b60208210811415620004bd57634e487b7160e01b600052602260045260246000fd5b50919050565b608051611ac0620004df60003960006102bd0152611ac06000f3fe608060405234801561001057600080fd5b50600436106101f05760003560e01c8063715018a61161010f578063a457c2d7116100a2578063d547741f11610071578063d547741f1461044d578063dd62ed3e14610460578063e63ab1e914610473578063f2fde38b1461049a57600080fd5b8063a457c2d7146103ed578063a9059cbb14610400578063ca15c87314610413578063d53913931461042657600080fd5b80639010d07c116100de5780639010d07c146103b757806391d14854146103ca57806395d89b41146103dd578063a217fddf146103e557600080fd5b8063715018a61461036f57806379cc6790146103775780638456cb591461038a5780638da5cb5b1461039257600080fd5b8063313ce5671161018757806340c10f191161015657806340c10f191461031557806342966c68146103285780635c975abb1461033b57806370a082311461034657600080fd5b8063313ce567146102b657806336568abe146102e757806339509351146102fa5780633f4ba83a1461030d57600080fd5b8063212c2052116101c3578063212c20521461025757806323b872dd1461026c578063248a9ca31461027f5780632f2ff15d146102a357600080fd5b806301ffc9a7146101f557806306fdde031461021d578063095ea7b31461023257806318160ddd14610245575b600080fd5b610208610203366004611766565b6104ad565b60405190151581526020015b60405180910390f35b6102256104d8565b60405161021491906117bc565b61020861024036600461180b565b61056a565b6005545b604051908152602001610214565b61026a61026536600461180b565b610582565b005b61020861027a366004611835565b6105fd565b61024961028d366004611871565b6000908152600160208190526040909120015490565b61026a6102b136600461188a565b610621565b60405160ff7f0000000000000000000000000000000000000000000000000000000000000000168152602001610214565b61026a6102f536600461188a565b610647565b61020861030836600461180b565b6106c5565b61026a6106e7565b61026a61032336600461180b565b61078d565b61026a610336366004611871565b61082c565b60085460ff16610208565b6102496103543660046118b6565b6001600160a01b031660009081526003602052604090205490565b61026a610839565b61026a61038536600461180b565b61084b565b61026a610860565b6000546001600160a01b03165b6040516001600160a01b039091168152602001610214565b61039f6103c53660046118d1565b610904565b6102086103d836600461188a565b610923565b61022561094e565b610249600081565b6102086103fb36600461180b565b61095d565b61020861040e36600461180b565b6109d8565b610249610421366004611871565b6109e6565b6102497f9f2df0fed2c77648de5860a4cc508cd0818c85b8b8a1ab4ceeef8d981c8956a681565b61026a61045b36600461188a565b6109fd565b61024961046e3660046118f3565b610a23565b6102497f65d7a28e3265b37a6474929f336521b332c1681b933f6cb9f3376673440d862a81565b61026a6104a83660046118b6565b610a4e565b60006001600160e01b03198216635a05180f60e01b14806104d257506104d282610b44565b92915050565b6060600680546104e79061191d565b80601f01602080910402602001604051908101604052809291908181526020018280546105139061191d565b80156105605780601f1061053557610100808354040283529160200191610560565b820191906000526020600020905b81548152906001019060200180831161054357829003601f168201915b5050505050905090565b600033610578818585610b79565b5060019392505050565b61058d600033610923565b6105ed5760405162461bcd60e51b815260206004820152602660248201527f4d75737420686176652061646d696e20726f6c6520746f207472616e73666572604482015265103a37b5b2b760d11b60648201526084015b60405180910390fd5b6105f88233836105fd565b505050565b60003361060b858285610c9d565b610616858585610d17565b506001949350505050565b6000828152600160208190526040909120015461063d81610ecd565b6105f88383610ed7565b6001600160a01b03811633146106b75760405162461bcd60e51b815260206004820152602f60248201527f416363657373436f6e74726f6c3a2063616e206f6e6c792072656e6f756e636560448201526e103937b632b9903337b91039b2b63360891b60648201526084016105e4565b6106c18282610ef9565b5050565b6000336105788185856106d88383610a23565b6106e2919061196e565b610b79565b6107117f65d7a28e3265b37a6474929f336521b332c1681b933f6cb9f3376673440d862a33610923565b6107835760405162461bcd60e51b815260206004820152603960248201527f45524332305072657365744d696e7465725061757365723a206d75737420686160448201527f76652070617573657220726f6c6520746f20756e70617573650000000000000060648201526084016105e4565b61078b610f1b565b565b6107b77f9f2df0fed2c77648de5860a4cc508cd0818c85b8b8a1ab4ceeef8d981c8956a633610923565b6108225760405162461bcd60e51b815260206004820152603660248201527f45524332305072657365744d696e7465725061757365723a206d7573742068616044820152751d99481b5a5b9d195c881c9bdb19481d1bc81b5a5b9d60521b60648201526084016105e4565b6106c18282610f6d565b610836338261103a565b50565b61084161117a565b61078b60006111d4565b610856823383610c9d565b6106c1828261103a565b61088a7f65d7a28e3265b37a6474929f336521b332c1681b933f6cb9f3376673440d862a33610923565b6108fc5760405162461bcd60e51b815260206004820152603760248201527f45524332305072657365744d696e7465725061757365723a206d75737420686160448201527f76652070617573657220726f6c6520746f20706175736500000000000000000060648201526084016105e4565b61078b611224565b600082815260026020526040812061091c9083611261565b9392505050565b60009182526001602090815260408084206001600160a01b0393909316845291905290205460ff1690565b6060600780546104e79061191d565b6000338161096b8286610a23565b9050838110156109cb5760405162461bcd60e51b815260206004820152602560248201527f45524332303a2064656372656173656420616c6c6f77616e63652062656c6f77604482015264207a65726f60d81b60648201526084016105e4565b6106168286868403610b79565b600033610578818585610d17565b60008181526002602052604081206104d29061126d565b60008281526001602081905260409091200154610a1981610ecd565b6105f88383610ef9565b6001600160a01b03918216600090815260046020908152604080832093909416825291909152205490565b610a5661117a565b6001600160a01b038116610abb5760405162461bcd60e51b815260206004820152602660248201527f4f776e61626c653a206e6577206f776e657220697320746865207a65726f206160448201526564647265737360d01b60648201526084016105e4565b610836816111d4565b610ace8282610923565b6106c15760008281526001602081815260408084206001600160a01b0386168086529252808420805460ff19169093179092559051339285917f2f8788117e7eff1d82e926ec794901d17c78024a50270940304540a733656f0d9190a45050565b600061091c836001600160a01b038416611277565b60006001600160e01b03198216637965db0b60e01b14806104d257506301ffc9a760e01b6001600160e01b03198316146104d2565b6001600160a01b038316610bdb5760405162461bcd60e51b8152602060048201526024808201527f45524332303a20617070726f76652066726f6d20746865207a65726f206164646044820152637265737360e01b60648201526084016105e4565b6001600160a01b038216610c3c5760405162461bcd60e51b815260206004820152602260248201527f45524332303a20617070726f766520746f20746865207a65726f206164647265604482015261737360f01b60648201526084016105e4565b6001600160a01b0383811660008181526004602090815260408083209487168084529482529182902085905590518481527f8c5be1e5ebec7d5bd14f71427d1e84f3dd0314c0f7b2291e5b200ac8c7c3b925910160405180910390a3505050565b6000610ca98484610a23565b90506000198114610d115781811015610d045760405162461bcd60e51b815260206004820152601d60248201527f45524332303a20696e73756666696369656e7420616c6c6f77616e636500000060448201526064016105e4565b610d118484848403610b79565b50505050565b6001600160a01b038316610d7b5760405162461bcd60e51b815260206004820152602560248201527f45524332303a207472616e736665722066726f6d20746865207a65726f206164604482015264647265737360d81b60648201526084016105e4565b6001600160a01b038216610ddd5760405162461bcd60e51b815260206004820152602360248201527f45524332303a207472616e7366657220746f20746865207a65726f206164647260448201526265737360e81b60648201526084016105e4565b610de88383836112c6565b6001600160a01b03831660009081526003602052604090205481811015610e605760405162461bcd60e51b815260206004820152602660248201527f45524332303a207472616e7366657220616d6f756e7420657863656564732062604482015265616c616e636560d01b60648201526084016105e4565b6001600160a01b0380851660008181526003602052604080822086860390559286168082529083902080548601905591517fddf252ad1be2c89b69c2b068fc378daa952ba7f163c4a11628f55a4df523b3ef90610ec09086815260200190565b60405180910390a3610d11565b61083681336112d1565b610ee18282610ac4565b60008281526002602052604090206105f89082610b2f565b610f03828261132a565b60008281526002602052604090206105f89082611391565b610f236113a6565b6008805460ff191690557f5db9ee0a495bf2e6ff9c91a7834c1ba4fdd244a5e8aa4e537bd38aeae4b073aa335b6040516001600160a01b03909116815260200160405180910390a1565b6001600160a01b038216610fc35760405162461bcd60e51b815260206004820152601f60248201527f45524332303a206d696e7420746f20746865207a65726f20616464726573730060448201526064016105e4565b610fcf600083836112c6565b8060056000828254610fe1919061196e565b90915550506001600160a01b0382166000818152600360209081526040808320805486019055518481527fddf252ad1be2c89b69c2b068fc378daa952ba7f163c4a11628f55a4df523b3ef910160405180910390a35050565b6001600160a01b03821661109a5760405162461bcd60e51b815260206004820152602160248201527f45524332303a206275726e2066726f6d20746865207a65726f206164647265736044820152607360f81b60648201526084016105e4565b6110a6826000836112c6565b6001600160a01b0382166000908152600360205260409020548181101561111a5760405162461bcd60e51b815260206004820152602260248201527f45524332303a206275726e20616d6f756e7420657863656564732062616c616e604482015261636560f01b60648201526084016105e4565b6001600160a01b03831660008181526003602090815260408083208686039055600580548790039055518581529192917fddf252ad1be2c89b69c2b068fc378daa952ba7f163c4a11628f55a4df523b3ef910160405180910390a3505050565b6000546001600160a01b0316331461078b5760405162461bcd60e51b815260206004820181905260248201527f4f776e61626c653a2063616c6c6572206973206e6f7420746865206f776e657260448201526064016105e4565b600080546001600160a01b038381166001600160a01b0319831681178455604051919092169283917f8be0079c531659141344cd1fd0a4f28419497f9722a3daafe3b4186f6b6457e09190a35050565b61122c6113ef565b6008805460ff191660011790557f62e78cea01bee320cd4e420270b5ea74000d11b0c9f74754ebdbfc544b05a258610f503390565b600061091c8383611435565b60006104d2825490565b60008181526001830160205260408120546112be575081546001818101845560008481526020808220909301849055845484825282860190935260409020919091556104d2565b5060006104d2565b6105f883838361145f565b6112db8282610923565b6106c1576112e8816114c5565b6112f38360206114d7565b604051602001611304929190611986565b60408051601f198184030181529082905262461bcd60e51b82526105e4916004016117bc565b6113348282610923565b156106c15760008281526001602090815260408083206001600160a01b0385168085529252808320805460ff1916905551339285917ff6391f5c32d9c69d2a47ea670b442974b53935d1edc7fd64eb21e047a839171b9190a45050565b600061091c836001600160a01b038416611673565b60085460ff1661078b5760405162461bcd60e51b815260206004820152601460248201527314185d5cd8589b194e881b9bdd081c185d5cd95960621b60448201526064016105e4565b60085460ff161561078b5760405162461bcd60e51b815260206004820152601060248201526f14185d5cd8589b194e881c185d5cd95960821b60448201526064016105e4565b600082600001828154811061144c5761144c6119fb565b9060005260206000200154905092915050565b60085460ff16156105f85760405162461bcd60e51b815260206004820152602a60248201527f45524332305061757361626c653a20746f6b656e207472616e736665722077686044820152691a5b19481c185d5cd95960b21b60648201526084016105e4565b60606104d26001600160a01b03831660145b606060006114e6836002611a11565b6114f190600261196e565b67ffffffffffffffff81111561150957611509611a30565b6040519080825280601f01601f191660200182016040528015611533576020820181803683370190505b509050600360fc1b8160008151811061154e5761154e6119fb565b60200101906001600160f81b031916908160001a905350600f60fb1b8160018151811061157d5761157d6119fb565b60200101906001600160f81b031916908160001a90535060006115a1846002611a11565b6115ac90600161196e565b90505b6001811115611624576f181899199a1a9b1b9c1cb0b131b232b360811b85600f16601081106115e0576115e06119fb565b1a60f81b8282815181106115f6576115f66119fb565b60200101906001600160f81b031916908160001a90535060049490941c9361161d81611a46565b90506115af565b50831561091c5760405162461bcd60e51b815260206004820181905260248201527f537472696e67733a20686578206c656e67746820696e73756666696369656e7460448201526064016105e4565b6000818152600183016020526040812054801561175c576000611697600183611a5d565b85549091506000906116ab90600190611a5d565b90508181146117105760008660000182815481106116cb576116cb6119fb565b90600052602060002001549050808760000184815481106116ee576116ee6119fb565b6000918252602080832090910192909255918252600188019052604090208390555b855486908061172157611721611a74565b6001900381819060005260206000200160009055905585600101600086815260200190815260200160002060009055600193505050506104d2565b60009150506104d2565b60006020828403121561177857600080fd5b81356001600160e01b03198116811461091c57600080fd5b60005b838110156117ab578181015183820152602001611793565b83811115610d115750506000910152565b60208152600082518060208401526117db816040850160208701611790565b601f01601f19169190910160400192915050565b80356001600160a01b038116811461180657600080fd5b919050565b6000806040838503121561181e57600080fd5b611827836117ef565b946020939093013593505050565b60008060006060848603121561184a57600080fd5b611853846117ef565b9250611861602085016117ef565b9150604084013590509250925092565b60006020828403121561188357600080fd5b5035919050565b6000806040838503121561189d57600080fd5b823591506118ad602084016117ef565b90509250929050565b6000602082840312156118c857600080fd5b61091c826117ef565b600080604083850312156118e457600080fd5b50508035926020909101359150565b6000806040838503121561190657600080fd5b61190f836117ef565b91506118ad602084016117ef565b600181811c9082168061193157607f821691505b6020821081141561195257634e487b7160e01b600052602260045260246000fd5b50919050565b634e487b7160e01b600052601160045260246000fd5b6000821982111561198157611981611958565b500190565b7f416363657373436f6e74726f6c3a206163636f756e74200000000000000000008152600083516119be816017850160208801611790565b7001034b99036b4b9b9b4b733903937b6329607d1b60179184019182015283516119ef816028840160208801611790565b01602801949350505050565b634e487b7160e01b600052603260045260246000fd5b6000816000190483118215151615611a2b57611a2b611958565b500290565b634e487b7160e01b600052604160045260246000fd5b600081611a5557611a55611958565b506000190190565b600082821015611a6f57611a6f611958565b500390565b634e487b7160e01b600052603160045260246000fdfea264697066735822122029ff4b90b1598790a4b6e27acb2536ea731c595066c70686523e6716ba45409564736f6c634300080a0033",
  "linkReferences": {},
  "deployedLinkReferences": {}
}